:0300000002085F94
:0C085F00787FE4F6D8FD75817C0208A6C5
:100A6C0040008000300020100001080904050C0D26
:100A7C000203FF01800204200240018008101008CC
:100A8C00200440FF7FFFBFFFDFFFEFFFF7FFFBFFFF
:100A9C00FDFFFEFF7FFFBFFFDFFFEFFFF7FFFBFF59
:100AAC00FDFFFE7FFFBFFFDFFFEFFFF7FFFBFFFD4B
:100ABC00FFFEFF7FFFBFFFDFFFEFFFF7FFFEFFFD36
:070ACC00FFFBFFF00110FF2A
:0C0C7A00017200017A00012300014CFF10
:080AD3008E0D8F0E8C0F8D10AB
:100ADB00E4FDEDFF3395E0FEC3EF9410EE648094DC
:100AEB0080503AE50D3392A5E50E25E0F50EE50DA8
:100AFB0033F50DE50F339280E51025E0F510E50F8A
:100B0B0033F50FEA3392A0EB25E0FBEA33FAD2A7D9
:0D0B1B00D283D2A3C2A7C283C2A30D80B5AE
:010B280022AA
:0D0C6D00D2A6D282D2A2C2A6C282C2A22208
:10000E00E57504F57175F00212070B85F071E4F5D4
:10001E000BAF0BEF3395E0FEC3EF9408EE648094C4
:10002E008040030202DFE571C454F0244FF8EF253F
:10003E00E028F874FFF608F6E571C454F0242AF8A7
:10004E00E50B25E028F874FFF608F6E4F50CAF0C86
:10005E00EF3395E0FEC3EF9408EE64809480400386
:10006E000202DAE571C454F0244FF8E50B25E028BE
:10007E00F8C000E6FC08E6FDAF0BEF3395E0FEEFAF
:10008E00C4F8540FC868FFEEC454F048FE74802FB5
:10009E00F58274003EF583AF0CEF3395E0FEE582FA
:1000AE002FF582E5833EF583E05401FF3395E04F53
:1000BE00603BAF0CEF3395E0FEEF25E0FBEE33FA3D
:1000CE00AF75EF3395E0FEEF7805C333CE33CED860
:1000DE00F9248FF582740A3EF583E5822BF582E5CD
:1000EE00833AF583E493FE740193FF80047EFF7FD1
:1000FE00FFEC5EFEED5FD000A60608F6E571C45477
:10010E00F0244FF8E50B25E028F8C000E6FC08E6E1
:10011E00FDAF0BEF3395E0FEEFC4F8540FC868FF48
:10012E00EEC454F048FE74802FF58274003EF583C1
:10013E00AF0CEF3395E0FEE5822FF582E5833EF5B9
:10014E0083E05402FF3395E04F603BAF0CEF3395E5
:10015E00E0FEEF25E0FBEE33FAAF71EF3395E0FEF4
:10016E00EF7805C333CE33CED8F9248FF582740AD7
:10017E003EF583E5822BF582E5833AF583E493FE23
:10018E00740193FF80047EFF7FFFEC5EFEED5FD077
:10019E0000A60608F6E571C454F0242AF8E50B25EE
:1001AE00E028F8C000E6FC08E6FDAF0BEF3395E063
:1001BE00FEEFC4F8540FC868FFEEC454F048FE7446
:1001CE00882FF58274003EF583AF0CEF3395E0FE79
:1001DE00E5822FF582E5833EF583E05401FF3395EA
:1001EE00E04F603BAF0CEF3395E0FEEF25E0FBEE0A
:1001FE0033FAAF75EF3395E0FEEF7805C333CE33A8
:10020E00CED8F9249FF582740A3EF583E5822BF54C
:10021E0082E5833AF583E493FE740193FF80047EB6
:10022E00FF7FFFEC5EFEED5FD000A60608F6E571DF
:10023E00C454F0242AF8E50B25E028F8C000E6FCAB
:10024E0008E6FDAF0BEF3395E0FEEFC4F8540FC890
:10025E0068FFEEC454F048FE74882FF58274003E99
:10026E00F583AF0CEF3395E0FEE5822FF582E58343
:10027E003EF583E05402FF3395E04F603BAF0CEF49
:10028E003395E0FEEF25E0FBEE33FAAF71EF3395D9
:10029E00E0FEEF7805C333CE33CED8F9249FF58236
:1002AE00740A3EF583E5822BF582E5833AF583E405
:1002BE0093FE740193FF80047EFF7FFFEC5EFEEDE4
:1002CE005FD000A60608F6050C02005C050B0200C6
:0802DE001FD204857175C204F2
:0102E60022F5
:100976007804EFA2E713D8FB5407FBEF540FFA7481
:10098600002572F582E43400F583EFF0E572045435
:100996007FF5720523EBFF3395E0FEEAFD3395E024
:1009A600FCED2FFFEC3EFE7C007D02120794ED4C21
:1009B60070047D0180027D02AF03EF3395E0FEEF08
:1009C600C4F8540FC868FFEEC454F048FE74802F74
:1009D600F58274003EF583AF02EF3395E0FEE582C3
:0A09E6002FF582E5833EF583EDF066
:0109F00022E4
:100B29007400257AF582E43400F583E0FD7804A2A7
:100B3900E713D8FBFFEF5407C4F8540FC868FFE464
:100B4900C454F048FE74802FF58274003EF583ED9D
:100B5900540FFF3395E0FEE5822FF582E5833EF5DC
:0D0B690083E4F0E57A04547FF57A15232229
:10063700E58B547FF54BC374809523FDE49400FC50
:10064700AF4B7E0012073FED04F54BE4F9FDEDFFDC
:100657003395E0FEC3EF9408EE6480948040030274
:10066700070AE4FCECFF3395E0FEC3EF9410EE6459
:100677008094804003020706EDFF3395E0FEEFC448
:10068700F8540FC868FFEEC454F048FE74802FF585
:100697008274003EF583ECFF3395E0FEE5822FF58B
:1006A70082E5833EF583E0FF3395E0FEEF4E704B26
:1006B70009E9FB3395E0FAC3EB954B7480F86A9828
:1006C7004039EDFF3395E0FEEFC4F8540FC868FFDB
:1006D700EEC454F048FE74802FF58274003EF58313
:1006E700ECFF3395E0FEE5822FF582E5833EF58347
:1006F7007403F0EDC454F04CF54C220C02066B0D5C
:0307070002065592
:01070A0022CC
:100B7600AF4C120976120637054EE54E7002054D4A
:100B8600D201E4F56FFFEFFD3395E0FCC3ED94046D
:100B9600EC64809480502574242FF80674242FF872
:100BA600E6FD3395E0FCC3ED940AEC648094804046
:0C0BB6000B74242FF874F626F60F80CA8A
:010BC2002210
:10040A00E57025295403F574E57A2523FFE433CFF3
:10041A0024FFCF34FFFE7C007D8012079474002DE8
:10042A00F58274003CF583E0F579AF74EF3395E01B
:10043A00FE74CF2FF582740A3EF583E4932579F58D
:10044A0028E579540FF5777804E579A2E713D8FB04
:10045A005407F5787804E528A2E713D8FBFFEF5490
:10046A0007C4F8540FC868FFE4C454F048FE748007
:10047A002FF58274003EF583E528540FFF3395E08B
:10048A00FEE5822FF582E5833EF583E0FFE577FD01
:10049A003395E0FC4D700DE574FB3395E0FAEB649F
:1004AA00034A6039ED640F4C700DE574FD3395E035
:1004BA00FCED64014C6026E578FD3395E0FC4D7057
:1004CA0009E574FB3395E04B6013ED64074C70103B
:1004DA00E574FD3395E0FCED64024C7003D38001B2
:1004EA00C39202EFFD3395E0FCED64014C6006ED2A
:1004FA0064024C7003D38001C392002000033002CF
:10050A00037F0522E528B54C05120B768008AF2833
:0B051A00120976120B298574707F0017
:0105250022B3
:1009F100E54A14600D14602314603614604C24041D
:100A01008063AF70EF3395E0FEEF64034E700280B8
:100A110046EF64014E70028047804AAF70EF339514
:100A2100E0FE4F70028030EF64024E700280318030
:100A310034AF70EF3395E0FEEF64014E7002801722
:100A4100EF64034E70028018801BAF70EF3395E0A6
:100A5100FEEF64024E7005752901800CEF4E7005A2
:0B0A61007529FF8003E4F52902040A58
:1008EB00E4FDEDFF3395E0FEC3EF9408EE648094D6
:1008FB00805049E4FCECFF3395E0FEC3EF9410EE1F
:10090B00648094805033EDFF3395E0FEEFC4F854D0
:10091B000FC868FFEEC454F048FE74802FF5827444
:10092B00003EF583ECFF3395E0FEE5822FF582E583
:10093B00833EF583E4F00C80BC0D80A6E4F572F5E4
:10094B007AF523F576F575C203F54DF54EC201FF29
:10095B001209767F011209767F02120976757001F2
:0B096B00E4F529F54A12063702000EE1
:1007CA00758921758CF4758A60E4F58DF58BD28C68
:1007DA00D28ED28875B802F521F5227F017E2012C9
:1007EA000C2D8F247F027E20120C2D8F257F037EF5
:1007FA0020120C2D8F267F047E20120C2D8F27E4C9
:10080A00FBEBFF3395E0FEC3EF9403EE6480948024
:10081A005028C374039B2424F8E6FF3395E0FEEFC7
:10082A002522F522EE3521F521FEAF227C007D0A34
:10083A0012072D8E218F220B80C7AF24EF3395E04C
:10084A00FEEF2522F522EE3521F5211208EBD2A979
:04085A00C2ABD2AFAC
:01085E002277
:1002E7001207CA30B5352085FA7F007E20120C5AD6
:1002F700E4FD7F017E20120C0EE4FD7F027E2012BA
:100307000C0EE4FD7F037E20120C0EE4FD7F047EBD
:1003170020120C0EE4F521F52280C8E4F508AF0899
:10032700EF3395E0FEC3EF9404EE64809480500AA7
:1003370074242FF8E4F6050880E4D2A8AF4AEF3317
:1003470095E0FEEF64054E7073C2A8C3E54E952293
:10035700E5216480F8E54D64809840357F007E2074
:10036700120C5AAD247F017E20120C0EAD257F02A0
:100377007E20120C0EAD267F037E20120C0EAD27B9
:100387007F047E20120C0E854D21854E22D20380DC
:1003970002C20320B5FD1208EBE4F508AF08EF33FE
:1003A70095E0FEC3EF9404EE64809480500A7424B1
:1003B7002FF8E4F6050880E4D2A88080AF4AEF332F
:1003C70095E0FE4F6003020343EF4E700920B60627
:1003D700754A01020343EF4E700920B406754A03BC
:1003E700020343EF4E700920B706754A0402034320
:1003F700EF4E600302034330B303020343754A021F
:03040700020343AA
:03000300020BC32A
:100BC300C0E0C0F0C083C082C0D075D000C000C0F8
:100BD30001C002C003C004C005C006C0071209F16A
:100BE3008F4AEF3395E0FEEF64054E600312000E6B
:100BF300D007D006D005D004D003D002D001D00056
:0B0C0300D0D0D082D083D0F0D0E032FF
:03000B00020526C5
:10052600C0E0C083C082C0D075D000C000C002C089
:1005360003C004C005C006C0070576300119AF6FB9
:10054600056FEF3395E0FED3EF941FEE6480948041
:1005560050028001C39201E5765403F57CE576549A
:1005660007F57B3001047F0180027F00E5765FF5A9
:10057600737424257CF8E6FF3395E0FE74742FF53A
:1005860082740A3EF583E493FFE57CFD3395E0FC37
:1005960074702DF582740A3CF583E4934FFFA20331
:1005A600E433900A6C934FFFE573FD3395E0FC74DA
:1005B6006E2DF582740A3CF583E4934FF590200482
:1005C60053D2A1D281E575C454F0244FF8E57B25BA
:1005D600E028F8E6FC08E6FDE575C454F0242AF8A0
:1005E600E57B25E028F8E6FA08E6FBAF7BEF3395D6
:1005F600E0FEEF25E0FFEE33FE747F2FF582740AEE
:100606003EF583E493FE740193FF120AD3120C6D38
:10061600C2A1C281758CF4758A60D007D006D00558
:10062600D004D003D002D000D0D0D082D083D0E086
:010636003291
:070C4700C2AF8CE3EDF5E400
:0C0C4E00C2AF53E71843E70143E78022E0
:0B0C870053E77FE4F5E5F5E6D2AF226D
:080C920075E64675E6B9002283
:040C2D00AD07AC065D
:100C3100E4FF120C4753E5F843E501120C92AFE2D1
:050C4100120C87D2AF88
:010C4600228B
:100C0E00AB07AA06C2AF8AE3EBF5E4120C4E53E52E
:0F0C1E00F843E5028DE2120C92120C87D2AF223E
:100C5A00AD07AC06120C4753E5F843E503120C92B4
:030C6A00020C87F2
:10086B000202E7E493A3F8E493A34003F68001F2BA
:10087B0008DFF48029E493A3F85407240CC8C3338E
:10088B00C4540F4420C8834004F456800146F6DF5D
:10089B00E4800B0102040810204080900C7AE47E67
:1008AB00019360BCA3FF543F30E509541FFEE49352
:1008BB00A360010ECF54C025E060A840B8E493A319
:1008CB00FAE493A3F8E493A3C8C582C8CAC583CA44
:1008DB00F0A3C8C582C8CAC583CADFE9DEE780BEFC
:010C8600006D
:10070B00C2D530F707B2D563F0FF05F030E70CB276
:10071B00D5F4048463F0FF05F080018430D502F436
:02072B000422A6
:10072D00EF8DF0A4A8F0CF8CF0A428CE8DF0A42EE0
:02073D00FE229A
:10073F00BC000BBE0029EF8DF084FFADF022E4CC9E
:10074F00F875F008EF2FFFEE33FEEC33FCEE9DEC67
:10075F00984005FCEE9DFE0FD5F0E9E4CEFD22EDAD
:10076F00F8F5F0EE8420D21CFEADF075F008EF2FF7
:10077F00FFED33FD4007985006D5F0F222C398FDE8
:05078F000FD5F0EA2285
:10079400C2D5EC30E709B2D5E4C39DFDE49CFCEE80
:1007A40030E715B2D5E4C39FFFE49EFE12073FC3B2
:1007B400E49DFDE49CFC800312073F30D507C3E4AD
:0607C4009FFFE49EFE22EF
:00000001FF
