:03000000020804EF
:0C080400787FE4F6D8FD75817C02084B7B
:100A110040008000300020100001080904050C0D81
:100A21000203FF0180020420024001800810100827
:100A3100200440FF7FFFBFFFDFFFEFFFF7FFFBFF5A
:100A4100FDFFFEFF7FFFBFFFDFFFEFFFF7FFFBFFB4
:100A5100FDFFFE7FFFBFFFDFFFEFFFF7FFFBFFFDA6
:100A6100FFFEFF7FFFBFFFDFFFEFFFF7FFFEFFFD91
:070A7100FFFBFFF00110FF85
:0C0C1F00017200017A00012300014CFF6B
:080A78008E0D8F0E8C0F8D1006
:100A8000E4FDEDFF3395E0FEC3EF9410EE64809437
:100A900080503AE50D3392A5E50E25E0F50EE50D03
:100AA00033F50DE50F339280E51025E0F510E50FE5
:100AB00033F50FEA3392A0EB25E0FBEA33FAD2A735
:0D0AC000D283D2A3C2A7C283C2A30D80B50A
:010ACD002206
:0D0C1200D2A6D282D2A2C2A6C282C2A22263
:10000E00E57504F57175F0021206B085F071D20433
:10001E00E4F50BAF0BEF3395E0FEC3EF9408EE64FF
:10002E0080948040030202E1E571C454F0244FF83D
:10003E00EF25E028F874FFF608F6E571C454F024B5
:10004E002AF8E50B25E028F874FFF608F6E4F50C1F
:10005E00AF0CEF3395E0FEC3EF9408EE648094800E
:10006E0040030202DCE571C454F0244FF8E50B2581
:10007E00E028F8C000E6FC08E6FDAF0BEF3395E094
:10008E00FEEFC4F8540FC868FFEEC454F048FE7477
:10009E00802FF58274003EF583AF0CEF3395E0FEB2
:1000AE00E5822FF582E5833EF583E05401FF33951B
:1000BE00E04F603BAF0CEF3395E0FEEF25E0FBEE3B
:1000CE0033FAAF75EF3395E0FEEF7805C333CE33D9
:1000DE00CED8F92434F582740A3EF583E5822BF5E9
:1000EE0082E5833AF583E493FE740193FF80047EE8
:1000FE00FF7FFFEC5EFEED5FD000A60608F6E57111
:10010E00C454F0244FF8E50B25E028F8C000E6FCB7
:10011E0008E6FDAF0BEF3395E0FEEFC4F8540FC8C1
:10012E0068FFEEC454F048FE74802FF58274003ED2
:10013E00F583AF0CEF3395E0FEE5822FF582E58374
:10014E003EF583E05402FF3395E04F603BAF0CEF7A
:10015E003395E0FEEF25E0FBEE33FAAF71EF33950A
:10016E00E0FEEF7805C333CE33CED8F92434F582D2
:10017E00740A3EF583E5822BF582E5833AF583E436
:10018E0093FE740193FF80047EFF7FFFEC5EFEED15
:10019E005FD000A60608F6E571C454F0242AF8E5EF
:1001AE000B25E028F8C000E6FC08E6FDAF0BEF33A8
:1001BE0095E0FEEFC4F8540FC868FFEEC454F04843
:1001CE00FE74882FF58274003EF583AF0CEF3395E5
:1001DE00E0FEE5822FF582E5833EF583E05401FFD4
:1001EE003395E04F603BAF0CEF3395E0FEEF25E02B
:1001FE00FBEE33FAAF75EF3395E0FEEF7805C333C0
:10020E00CE33CED8F92444F582740A3EF583E582C6
:10021E002BF582E5833AF583E493FE740193FF8018
:10022E00047EFF7FFFEC5EFEED5FD000A60608F6B3
:10023E00E571C454F0242AF8E50B25E028F8C00037
:10024E00E6FC08E6FDAF0BEF3395E0FEEFC4F85485
:10025E000FC868FFEEC454F048FE74882FF5827400
:10026E00003EF583AF0CEF3395E0FEE5822FF5826D
:10027E00E5833EF583E05402FF3395E04F603BAFDC
:10028E000CEF3395E0FEEF25E0FBEE33FAAF71EFA6
:10029E003395E0FEEF7805C333CE33CED8F9244440
:1002AE00F582740A3EF583E5822BF582E5833AF5F5
:1002BE0083E493FE740193FF80047EFF7FFFEC5E68
:1002CE00FEED5FD000A60608F6050C02005E050BDB
:0802DE00020021857175C204C4
:0102E60022F5
:10091B007804EFA2E713D8FB5407FBEF540FFA74DC
:10092B00002572F582E43400F583EFF0E572045490
:10093B007FF5720523EBFF3395E0FEEAFD3395E07F
:10094B00FCED2FFFEC3EFE7C007D02120739ED4CD7
:10095B0070047D0180027D02AF03EF3395E0FEEF63
:10096B00C4F8540FC868FFEEC454F048FE74802FCF
:10097B00F58274003EF583AF02EF3395E0FEE5821E
:0A098B002FF582E5833EF583EDF0C1
:01099500223F
:100ACE007400257AF582E43400F583E0FD7804A203
:100ADE00E713D8FBFFEF5407C4F8540FC868FFE4C0
:100AEE00C454F048FE74802FF58274003EF583EDF9
:100AFE00540FFF3395E0FEE5822FF582E5833EF538
:0D0B0E0083E4F0E57A04547FF57A15232284
:1005DC00E58B547FF54BC374809523FDE49400FCAC
:1005EC00AF4B7E001206E4ED04F54BE4F9FDEDFF94
:1005FC003395E0FEC3EF9408EE64809480400302D0
:10060C0006AFE4FCECFF3395E0FEC3EF9410EE6410
:10061C0080948040030206ABEDFF3395E0FEEFC4FF
:10062C00F8540FC868FFEEC454F048FE74802FF5E0
:10063C008274003EF583ECFF3395E0FEE5822FF5E6
:10064C0082E5833EF583E0FF3395E0FEEF4E704B81
:10065C0009E9FB3395E0FAC3EB954B7480F86A9883
:10066C004039EDFF3395E0FEEFC4F8540FC868FF36
:10067C00EEC454F048FE74802FF58274003EF5836E
:10068C00ECFF3395E0FEE5822FF582E5833EF583A2
:10069C007403F0EDC454F04CF54C220C0206100D12
:0306AC000205FA4A
:0106AF002228
:100B1B00AF4C12091B1205DC054EE54E7002054D5C
:100B2B00D201E4F56FFFEFFD3395E0FCC3ED9404C8
:100B3B00EC64809480502574242FF80674242FF8CD
:100B4B00E6FD3395E0FCC3ED940AEC6480948040A1
:0C0B5B000B74242FF874F626F60F80CAE5
:010B6700226B
:1003F800E57025295403F574E57A2523FFE433CF06
:1004080024FFCF34FFFE7C007D8012073974002D55
:10041800F58274003CF583E0F579AF74EF3395E02D
:10042800FE74742FF582740A3EF583E4932579F5FA
:1004380028E579540FF5777804E579A2E713D8FB16
:100448005407F5787804E528A2E713D8FBFFEF54A2
:1004580007C4F8540FC868FFE4C454F048FE748019
:100468002FF58274003EF583E528540FFF3395E09D
:10047800FEE5822FF582E5833EF583E024FF9200B6
:10048800AF77EF3395E0FE4F700DAD74ED3395E027
:10049800FCED64034C6039EF640F4E700DAF74EFE0
:1004A8003395E0FEEF64014E6026AF78EF3395E0B8
:1004B800FE4F7009AD74ED3395E04D6013EF64079E
:1004C8004E7010AF74EF3395E0FEEF64024E700388
:1004D800D38001C39202E528B54C05120B1B80118D
:1004E8002000033002037F0522AF2812091B120ADD
:0704F800CE8574707F002225
:10099600E54A14600D14602314603614604C240478
:1009A6008063AF70EF3395E0FEEF64034E70028014
:1009B60046EF64014E70028047804AAF70EF339570
:1009C600E0FE4F70028030EF64024E70028031808C
:1009D60034AF70EF3395E0FEEF64014E700280177E
:1009E600EF64034E70028018801BAF70EF3395E002
:1009F600FEEF64024E7005752901800CEF4E7005FE
:0B0A06007529FF8003E4F5290203F8C6
:10089000E4FDEDFF3395E0FEC3EF9408EE64809431
:1008A000805049E4FCECFF3395E0FEC3EF9410EE7A
:1008B000648094805033EDFF3395E0FEEFC4F8542C
:1008C0000FC868FFEEC454F048FE74802FF58274A0
:1008D000003EF583ECFF3395E0FEE5822FF582E5DF
:1008E000833EF583E4F00C80BC0D80A6E4F572F540
:1008F0007AF523F576F575C203F54DF54EC201FF85
:1009000012091B7F0112091B7F0212091B7570015E
:0B091000E4F529F54A1205DC02000E98
:10076F00758921758CF4758A60E4F58DF58BD28CC3
:10077F00D28ED28875B802F521F5227F017E201224
:10078F000BD28F247F027E20120BD28F257F037E08
:10079F0020120BD28F267F047E20120BD28F27E4DC
:1007AF00FBEBFF3395E0FEC3EF9403EE6480948080
:1007BF005028C374039B2424F8E6FF3395E0FEEF23
:1007CF002522F522EE3521F521FEAF227C007D0A90
:1007DF001206D28E218F220B80C7AF24EF3395E004
:1007EF00FEEF2522F522EE3521F521120890D2A930
:0407FF00C2ABD2AF08
:0108030022D2
:1004FF0012076F20B5FDE4F508AF08EF3395E0FE66
:10050F00C3EF9404EE64809480500A74242FF8E4AF
:10051F00F6050880E4D2A8AF4AEF3395E0FEEF640A
:10052F00054E7073C2A8C3E54E9522E5216480F88D
:10053F00E54D64809840357F007E20120BFFAD247F
:10054F007F017E20120BB3AD257F027E20120BB3ED
:10055F00AD267F037E20120BB3AD277F047E2012C2
:10056F000BB3854D21854E22D2038002C20320B5E5
:10057F00FD120890E4F508AF08EF3395E0FEC3EFE6
:10058F009404EE64809480500A74242FF8E4F605E6
:10059F000880E4D2A88080AF4AEF3395E04F600324
:1005AF0002052620B606754A0102052620B40675F7
:1005BF004A0302052620B706754A0402052620B312
:0D05CF0006754A02020526E4F54A020526DB
:03000300020B6885
:100B6800C0E0C0F0C083C082C0D075D000C000C053
:100B780001C002C003C004C005C006C00712099620
:100B88008F4AEF3395E0FEEF64054E600312000EC6
:100B9800D007D006D005D004D003D002D001D000B1
:0B0BA800D0D0D082D083D0F0D0E0325B
:03000B000202E707
:1002E700C0E0C083C082C0D075D000C000C002C0CB
:1002F70003C004C005C006C0070576300119AF6FFB
:10030700056FEF3395E0FED3EF941FEE6480948082
:1003170050028001C39201E5765403F57CE57654DB
:1003270007F57B3001047F0180027F00E5765FF5EA
:10033700737424257CF8E6FF3395E0FE74192FF5D6
:1003470082740A3EF583E493FFE57CFD3395E0FC78
:1003570074152DF582740A3CF583E4934FFFA203CD
:10036700E433900A11934FFFE573FD3395E0FC7476
:10037700132DF582740A3CF583E4934FF59020041E
:1003870053D2A1D281E575C454F0244FF8E57B25FB
:10039700E028F8E6FC08E6FDE575C454F0242AF8E1
:1003A700E57B25E028F8E6FA08E6FBAF7BEF339517
:1003B700E0FEEF25E0FFEE33FE74242FF582740A8A
:1003C7003EF583E493FE740193FF120A78120C1230
:1003D700C2A1C281758CF4758A60D007D006D0059A
:1003E700D004D003D002D000D0D0D082D083D0E0C8
:0103F70032D3
:070BEC00C2AF8CE3EDF5E45C
:0C0BF300C2AF53E71843E70143E780223C
:0B0C2C0053E77FE4F5E5F5E6D2AF22C8
:080C370075E64675E6B90022DE
:040BD200AD07AC06B9
:100BD600E4FF120BEC53E5F843E501120C37AFE2E4
:050BE600120C2CD2AF3F
:010BEB0022E7
:100BB300AB07AA06C2AF8AE3EBF5E4120BF353E5E6
:0F0BC300F843E5028DE2120C37120C2CD2AF2250
:100BFF00AD07AC06120BEC53E5F843E503120C37C7
:030C0F00020C2CA8
:100810000204FFE493A3F8E493A34003F68001F2FB
:1008200008DFF48029E493A3F85407240CC8C333E9
:10083000C4540F4420C8834004F456800146F6DFB8
:10084000E4800B0102040810204080900C1FE47E1D
:10085000019360BCA3FF543F30E509541FFEE493AD
:10086000A360010ECF54C025E060A840B8E493A374
:10087000FAE493A3F8E493A3C8C582C8CAC583CA9F
:10088000F0A3C8C582C8CAC583CADFE9DEE780BE57
:010C2B0000C8
:1006B000C2D530F707B2D563F0FF05F030E70CB2D2
:1006C000D5F4048463F0FF05F080018430D502F492
:0206D000042202
:1006D200EF8DF0A4A8F0CF8CF0A428CE8DF0A42E3C
:0206E200FE22F6
:1006E400BC000BBE0029EF8DF084FFADF022E4CCFA
:1006F400F875F008EF2FFFEE33FEEC33FCEE9DECC3
:10070400984005FCEE9DFE0FD5F0E9E4CEFD22ED08
:10071400F8F5F0EE8420D21CFEADF075F008EF2F52
:10072400FFED33FD4007985006D5F0F222C398FD43
:050734000FD5F0EA22E0
:10073900C2D5EC30E709B2D5E4C39DFDE49CFCEEDB
:1007490030E715B2D5E4C39FFFE49EFE1206E4C369
:10075900E49DFDE49CFC80031206E430D507C3E464
:060769009FFFE49EFE224A
:00000001FF
