:03000000020839BA
:0C083900787FE4F6D8FD75817C02088011
:100A460040008000300020100001080904050C0D4C
:100A56000203FF01800204200240018008101008F2
:100A6600200440FF7FFFBFFFDFFFEFFFF7FFFBFF25
:100A7600FDFFFEFF7FFFBFFFDFFFEFFFF7FFFBFF7F
:100A8600FDFFFE7FFFBFFFDFFFEFFFF7FFFBFFFD71
:100A9600FFFEFF7FFFBFFFDFFFEFFFF7FFFEFFFD5C
:070AA600FFFBFFF00110FF50
:0C0C5400017200017A00012300014CFF36
:080AAD008E0D8F0E8C0F8D10D1
:100AB500E4FDEDFF3395E0FEC3EF9410EE64809402
:100AC50080503AE50D3392A5E50E25E0F50EE50DCE
:100AD50033F50DE50F339280E51025E0F510E50FB0
:100AE50033F50FEA3392A0EB25E0FBEA33FAD2A700
:0D0AF500D283D2A3C2A7C283C2A30D80B5D5
:010B020022D0
:0D0C4700D2A6D282D2A2C2A6C282C2A2222E
:10000E00E57504F57175F0021206E585F071E4F5FB
:10001E000BAF0BEF3395E0FEC3EF9408EE648094C4
:10002E008040030202DFE571C454F0244FF8EF253F
:10003E00E028F874FFF608F6E571C454F0242AF8A7
:10004E00E50B25E028F874FFF608F6E4F50CAF0C86
:10005E00EF3395E0FEC3EF9408EE64809480400386
:10006E000202DAE571C454F0244FF8E50B25E028BE
:10007E00F8C000E6FC08E6FDAF0BEF3395E0FEEFAF
:10008E00C4F8540FC868FFEEC454F048FE74802FB5
:10009E00F58274003EF583AF0CEF3395E0FEE582FA
:1000AE002FF582E5833EF583E05401FF3395E04F53
:1000BE00603BAF0CEF3395E0FEEF25E0FBEE33FA3D
:1000CE00AF75EF3395E0FEEF7805C333CE33CED860
:1000DE00F92469F582740A3EF583E5822BF582E5F3
:1000EE00833AF583E493FE740193FF80047EFF7FD1
:1000FE00FFEC5EFEED5FD000A60608F6E571C45477
:10010E00F0244FF8E50B25E028F8C000E6FC08E6E1
:10011E00FDAF0BEF3395E0FEEFC4F8540FC868FF48
:10012E00EEC454F048FE74802FF58274003EF583C1
:10013E00AF0CEF3395E0FEE5822FF582E5833EF5B9
:10014E0083E05402FF3395E04F603BAF0CEF3395E5
:10015E00E0FEEF25E0FBEE33FAAF71EF3395E0FEF4
:10016E00EF7805C333CE33CED8F92469F582740AFD
:10017E003EF583E5822BF582E5833AF583E493FE23
:10018E00740193FF80047EFF7FFFEC5EFEED5FD077
:10019E0000A60608F6E571C454F0242AF8E50B25EE
:1001AE00E028F8C000E6FC08E6FDAF0BEF3395E063
:1001BE00FEEFC4F8540FC868FFEEC454F048FE7446
:1001CE00882FF58274003EF583AF0CEF3395E0FE79
:1001DE00E5822FF582E5833EF583E05401FF3395EA
:1001EE00E04F603BAF0CEF3395E0FEEF25E0FBEE0A
:1001FE0033FAAF75EF3395E0FEEF7805C333CE33A8
:10020E00CED8F92479F582740A3EF583E5822BF572
:10021E0082E5833AF583E493FE740193FF80047EB6
:10022E00FF7FFFEC5EFEED5FD000A60608F6E571DF
:10023E00C454F0242AF8E50B25E028F8C000E6FCAB
:10024E0008E6FDAF0BEF3395E0FEEFC4F8540FC890
:10025E0068FFEEC454F048FE74882FF58274003E99
:10026E00F583AF0CEF3395E0FEE5822FF582E58343
:10027E003EF583E05402FF3395E04F603BAF0CEF49
:10028E003395E0FEEF25E0FBEE33FAAF71EF3395D9
:10029E00E0FEEF7805C333CE33CED8F92479F5825C
:1002AE00740A3EF583E5822BF582E5833AF583E405
:1002BE0093FE740193FF80047EFF7FFFEC5EFEEDE4
:1002CE005FD000A60608F6050C02005C050B0200C6
:0802DE001FD204857175C204F2
:0102E60022F5
:100950007804EFA2E713D8FB5407FBEF540FFA74A7
:10096000002572F582E43400F583EFF0E57204545B
:100970007FF5720523EBFF3395E0FEEAFD3395E04A
:10098000FCED2FFFEC3EFE7C007D0212076EED4C6D
:1009900070047D0180027D02AF03EF3395E0FEEF2E
:1009A000C4F8540FC868FFEEC454F048FE74802F9A
:1009B000F58274003EF583AF02EF3395E0FEE582E9
:0A09C0002FF582E5833EF583EDF08C
:0109CA00220A
:100B03007400257AF582E43400F583E0FD7804A2CD
:100B1300E713D8FBFFEF5407C4F8540FC868FFE48A
:100B2300C454F048FE74802FF58274003EF583EDC3
:100B3300540FFF3395E0FEE5822FF582E5833EF502
:0D0B430083E4F0E57A04547FF57A1523224F
:10061100E58B547FF54BC374809523FDE49400FC76
:10062100AF4B7E00120719ED04F54BE4F9FDEDFF28
:100631003395E0FEC3EF9408EE648094804003029A
:1006410006E4E4FCECFF3395E0FEC3EF9410EE64A6
:1006510080948040030206E0EDFF3395E0FEEFC495
:10066100F8540FC868FFEEC454F048FE74802FF5AB
:100671008274003EF583ECFF3395E0FEE5822FF5B1
:1006810082E5833EF583E0FF3395E0FEEF4E704B4C
:1006910009E9FB3395E0FAC3EB954B7480F86A984E
:1006A1004039EDFF3395E0FEEFC4F8540FC868FF01
:1006B100EEC454F048FE74802FF58274003EF58339
:1006C100ECFF3395E0FEE5822FF582E5833EF5836D
:1006D1007403F0EDC454F04CF54C220C0206450DA8
:0306E10002062FDF
:0106E40022F3
:100B5000AF4C120950120611054EE54E7002054DBC
:100B6000D201E4F56FFFEFFD3395E0FCC3ED940493
:100B7000EC64809480502574242FF80674242FF898
:100B8000E6FD3395E0FCC3ED940AEC64809480406C
:0C0B90000B74242FF874F626F60F80CAB0
:010B9C002236
:10050A00E57025295403F574E57A2523FFE433CFF2
:10051A0024FFCF34FFFE7C007D8012076E74002D0D
:10052A00F58274003CF583E0F579AF74EF3395E01A
:10053A00FE74A92FF582740A3EF583E4932579F5B2
:10054A0028E579540FF5777804E579A2E713D8FB03
:10055A005407F5787804E528A2E713D8FBFFEF548F
:10056A0007C4F8540FC868FFE4C454F048FE748006
:10057A002FF58274003EF583E528540FFF3395E08A
:10058A00FEE5822FF582E5833EF583E024FF9200A3
:10059A00AF77EF3395E0FE4F700DAD74ED3395E014
:1005AA00FCED64034C6039EF640F4E700DAF74EFCD
:1005BA003395E0FEEF64014E6026AF78EF3395E0A5
:1005CA00FE4F7009AD74ED3395E04D6013EF64078B
:1005DA004E7010AF74EF3395E0FEEF64024E700375
:1005EA00D38001C39202E528B54C05120B50801145
:1005FA002000033002037F0522AF28120950120B94
:07060A00038574707F0022DC
:1009CB00E54A14600D14602314603614604C240443
:1009DB008063AF70EF3395E0FEEF64034E700280DF
:1009EB0046EF64014E70028047804AAF70EF33953B
:1009FB00E0FE4F70028030EF64024E700280318057
:100A0B0034AF70EF3395E0FEEF64014E7002801748
:100A1B00EF64034E70028018801BAF70EF3395E0CC
:100A2B00FEEF64024E7005752901800CEF4E7005C8
:0B0A3B007529FF8003E4F52902050A7D
:1008C500E4FDEDFF3395E0FEC3EF9408EE648094FC
:1008D500805049E4FCECFF3395E0FEC3EF9410EE45
:1008E500648094805033EDFF3395E0FEEFC4F854F7
:1008F5000FC868FFEEC454F048FE74802FF582746B
:10090500003EF583ECFF3395E0FEE5822FF582E5A9
:10091500833EF583E4F00C80BC0D80A6E4F572F50A
:100925007AF523F576F575C203F54DF54EC201FF4F
:100935001209507F011209507F021209507570018A
:0B094500E4F529F54A12061102000E2D
:1007A400758921758CF4758A60E4F58DF58BD28C8E
:1007B400D28ED28875B802F521F5227F017E2012EF
:1007C4000C078F247F027E20120C078F257F037E67
:1007D40020120C078F267F047E20120C078F27E43B
:1007E400FBEBFF3395E0FEC3EF9403EE648094804B
:1007F4005028C374039B2424F8E6FF3395E0FEEFEE
:100804002522F522EE3521F521FEAF227C007D0A5A
:100814001207078E218F220B80C7AF24EF3395E098
:10082400FEEF2522F522EE3521F5211208C5D2A9C5
:04083400C2ABD2AFD2
:01083800229D
:1002E7001207A430B5352085FA7F007E20120C3422
:1002F700E4FD7F017E20120BE8E4FD7F027E2012E1
:100307000BE8E4FD7F037E20120BE8E4FD7F047E0B
:1003170020120BE8E4F521F52280C8E4F508AF08C0
:10032700EF3395E0FEC3EF9404EE64809480500AA7
:1003370074242FF8E4F6050880E4D2A8AF4AEF3317
:1003470095E0FEEF64054E7073C2A8C3E54E952293
:10035700E5216480F8E54D64809840357F007E2074
:10036700120C34AD247F017E20120BE8AD257F02ED
:100377007E20120BE8AD267F037E20120BE8AD2707
:100387007F047E20120BE8854D21854E22D2038003
:1003970002C20320B5FD1208C5E4F508AF08EF3324
:1003A70095E0FEC3EF9404EE64809480500A7424B1
:1003B7002FF8E4F6050880E4D2A88080AF4AEF332F
:1003C70095E04F600302034320B606754A01020316
:1003D7004320B406754A0302034320B706754A044F
:1003E70002034320B306754A02020343E4F54A02B7
:0203F7000343BE
:03000300020B9D50
:100B9D00C0E0C0F0C083C082C0D075D000C000C01E
:100BAD0001C002C003C004C005C006C0071209CBB6
:100BBD008F4AEF3395E0FEEF64054E600312000E91
:100BCD00D007D006D005D004D003D002D001D0007C
:0B0BDD00D0D0D082D083D0F0D0E03226
:03000B000203F9F4
:1003F900C0E0C083C082C0D075D000C000C002C0B8
:1004090003C004C005C006C0070576300119AF6FE7
:10041900056FEF3395E0FED3EF941FEE648094806F
:1004290050028001C39201E5765403F57CE57654C8
:1004390007F57B3001047F0180027F00E5765FF5D7
:10044900737424257CF8E6FF3395E0FE744E2FF58E
:1004590082740A3EF583E493FFE57CFD3395E0FC65
:10046900744A2DF582740A3CF583E4934FFFA20385
:10047900E433900A46934FFFE573FD3395E0FC742E
:10048900482DF582740A3CF583E4934FF5902004D6
:1004990053D2A1D281E575C454F0244FF8E57B25E8
:1004A900E028F8E6FC08E6FDE575C454F0242AF8CE
:1004B900E57B25E028F8E6FA08E6FBAF7BEF339504
:1004C900E0FEEF25E0FFEE33FE74592FF582740A42
:1004D9003EF583E493FE740193FF120AAD120C47B3
:1004E900C2A1C281758CF4758A60D007D006D00587
:1004F900D004D003D002D000D0D0D082D083D0E0B5
:0105090032BF
:070C2100C2AF8CE3EDF5E426
:0C0C2800C2AF53E71843E70143E7802206
:0B0C610053E77FE4F5E5F5E6D2AF2293
:080C6C0075E64675E6B90022A9
:040C0700AD07AC0683
:100C0B00E4FF120C2153E5F843E501120C6CAFE243
:050C1B00120C61D2AFD4
:010C200022B1
:100BE800AB07AA06C2AF8AE3EBF5E4120C2853E57B
:0F0BF800F843E5028DE2120C6C120C61D2AF22B1
:100C3400AD07AC06120C2153E5F843E503120C6C26
:030C4400020C613E
:100845000202E7E493A3F8E493A34003F68001F2E0
:1008550008DFF48029E493A3F85407240CC8C333B4
:10086500C4540F4420C8834004F456800146F6DF83
:10087500E4800B0102040810204080900C54E47EB3
:10088500019360BCA3FF543F30E509541FFEE49378
:10089500A360010ECF54C025E060A840B8E493A33F
:1008A500FAE493A3F8E493A3C8C582C8CAC583CA6A
:1008B500F0A3C8C582C8CAC583CADFE9DEE780BE22
:010C60000093
:1006E500C2D530F707B2D563F0FF05F030E70CB29D
:1006F500D5F4048463F0FF05F080018430D502F45D
:020705000422CC
:10070700EF8DF0A4A8F0CF8CF0A428CE8DF0A42E06
:02071700FE22C0
:10071900BC000BBE0029EF8DF084FFADF022E4CCC4
:10072900F875F008EF2FFFEE33FEEC33FCEE9DEC8D
:10073900984005FCEE9DFE0FD5F0E9E4CEFD22EDD3
:10074900F8F5F0EE8420D21CFEADF075F008EF2F1D
:10075900FFED33FD4007985006D5F0F222C398FD0E
:050769000FD5F0EA22AB
:10076E00C2D5EC30E709B2D5E4C39DFDE49CFCEEA6
:10077E0030E715B2D5E4C39FFFE49EFE120719C3FE
:10078E00E49DFDE49CFC800312071930D507C3E4F9
:06079E009FFFE49EFE2215
:00000001FF
